:100000000C94D0000C94C10D0C94E80D0C94F800E5
:100010000C94F8000C94F8000C94F8000C94F80080
:100020000C94F8000C94F8000C94F8000C94D7078A
:100030000C94F8000C94F8000C94F8000C94F80060
:100040000C94100E0C94F8000C94F2100C942411E3
:100050000C94F8000C94F8000C94F8000C94F80040
:100060000C94F8000C94F800003E800052F4F4D098
:10007000003415004FF4F4D0001A0B009DF4F4D0B6
:10008000000D05013BF4F4D00006830275F3F3D0B4
:1000900000034104EAF2F2D000022C07AEE2E2D003
:1000A0000001000800E1E1D00000801000E0E0D095
:1000B00000024003334242D0013E800052F4F5D0AA
:1000C000013415004FF4F4D0011A0B009DF4F4D064
:1000D000010D05013BF4F4D00106830275F3F3D062
:1000E00001034104EAF2F2D001022C07AEE2E2D0B1
:1000F0000101000800E1E1D00100801000E0E0D043
:1001000001024003334242D0087D0000108888D0AD
:1001100008682B0010F1F1D00834150010F5F5D067
:10012000081A0B0010F4F4D0080D050010F3F3D0FA
:100130000806830010F2F2D00803E80010E2E2D0D3
:100140000000000800020100000304070000000096
:100150000000000001020408102040800102040891
:100160001020010204081020040404040404040400
:100170000202020202020303030303030000000061
:1001800023002600290000000000250028002B0085
:1001900000000000240027002A002402C904541192
:1001A00011241FBECFEFD8E0DEBFCDBF12E0A0E02C
:1001B000B1E0EAEEF9E202C005900D92AE33B1076C
:1001C000D9F724E0AEE3B2E001C01D92AA3EB20727
:1001D000E1F711E0C0EAD1E004C02297FE010E94DD
:1001E0006414CA39D107C9F70E94BF120C94F314E2
:1001F0000C94000026E040E052EC61E070E08DE4F9
:1002000094E00E94901068E071E08DE494E00E9418
:10021000DB118EE792E00E946F0D811107C06DE047
:1002200071E08DE494E00E94DB11FFCF85E892E05D
:100230000E94A002811106C065E371E08DE494E0A4
:100240000E94DB1141E062E18DEC93E00E94A20A82
:1002500040E050E0BA018EE792E00C943E0DCF9260
:10026000DF92EF92FF920F931F93CF93DF9300D013
:10027000CDB7DEB785E892E00E943F02882309F4FB
:10028000D8C08CE38A83C12CD12CE12CF12C00E066
:1002900010E09E012F5F3F4FAE014E5F5F4F62E463
:1002A00072E085E892E00E941A05882309F4C1C033
:1002B00080914202813109F0BCC04AE050E0609177
:1002C00043028DE494E00E945312F12C809143028A
:1002D000F81650F5EF2DF0E0EE5BFD4F40913E0239
:1002E00050913F026091400270914102465F5F4F22
:1002F0006F4F7F4F25818EE792E00E94130D809112
:100300003E0290913F02A0914002B09141020196BD
:10031000A11DB11D80933E0290933F02A093400225
:10032000B0934102F394D2CF863308F082C061E4E7
:1003300071E08DE494E00E94D51140913E0250910D
:100340003F0260914002709141022AE030E08DE46A
:1003500094E00E946A12C0903E02D0903F02E0906A
:100360004002F090410226E440E050E0BA018EE7FE
:1003700092E00E94130D2CE441E050E060E070E058
:100380008EE792E00E94130D28E542E050E060E025
:1003900070E08EE792E00E94130D29E443E050E004
:1003A00060E070E08EE792E00E94130D2DE444E0DF
:1003B00050E060E070E08EE792E00E94130D27E4C9
:1003C00045E050E060E070E08EE792E00E94130D9F
:1003D0002AE346E050E060E070E08EE792E00E94A1
:1003E000130D2AE349E050E060E070E08EE792E010
:1003F0000E94130D2D2D332747E050E060E070E0A0
:100400008EE792E00E94130D2C2D48E050E060E052
:1004100070E08EE792E00E94130D2EE088E190E0FC
:100420000FB6F894A895809360000FBE20936000EB
:10043000FFCF0F900F90DF91CF911F910F91FF9001
:10044000EF90DF90CF9008952FE234E042E06AE031
:100450008DEC93E00E944F084AE06DEC73E085E874
:1004600092E00E94D30440E35FEE68E08EE792E002
:100470000C94760CFC017183608342830895DC0147
:100480008D919C91DC01ED91FC910280F381E02D36
:100490000994DC018D919C91DC01ED91FC91048427
:1004A000F585E02D0994DC018D919C91DC01ED91A5
:1004B000FC91008CF18DE02D0994EF92FF920F9347
:1004C0001F93CF93DF931F92CDB7DEB77C018B01D3
:1004D000622F49830E945302D7018D919C91DC01C8
:1004E000ED91FC910680F781E02D4981B8010F90D4
:1004F000DF91CF911F910F91FF90EF900994DC0154
:100500008D919C91DC01ED91FC91028CF38DE02D9D
:1005100009941F93CF93DF93EC01162F8881998163
:10052000DC01ED91FC910688F789E02D0995612F9A
:10053000CE010E947F021A83DF91CF911F9108950F
:100540001F93CF93DF93EC0188819981DC01ED91BA
:10055000FC910190F081E02D0995182F882321F05E
:100560006A81CE010E948902812FDF91CF911F9174
:100570000895DC018D919C91DC01ED91FC91048C3E
:10058000F58DE02D0994DC018D919C91DC01ED91BC
:10059000FC91068CF78DE02D0994DC018D919C91E6
:1005A000DC01ED91FC9102A0F3A1E02D0994DC01A6
:1005B0008D919C91DC01ED91FC9104A0F5A1E02DC1
:1005C0000994DC018D919C91DC01ED91FC9106A0D8
:1005D000F7A1E02D0994DC018D919C91DC01ED9156
:1005E000FC9100A4F1A5E02D0994AF92BF92CF92A7
:1005F000DF92EF92FF920F931F93CF93DF93EC0163
:10060000590188819981DC01ED91FC910480F5818B
:10061000E02D0995882309F1A114B10429F0CE0138
:100620000E94D702F50180830115110529F0CE0142
:100630000E94CD02D8018C93E114F10429F0CE017F
:100640000E94E102F7018083C114D10441F0CE0180
:100650000E94EB02D6018C9302C080E001C081E0D1
:10066000DF91CF911F910F91FF90EF90DF90CF908E
:10067000BF90AF90089581E0089580E00895FC0157
:1006800065830895FC0164830895FC0162870895E1
:10069000FC0163870895FC01648708954095FC017F
:1006A00025854223462B45870895FC0186810895C0
:1006B000FC0187810895FC0180850895FC018185F6
:1006C000089580E00895CF93DF93EC01E881F981EC
:1006D0000280F381E02DCE010995811103C00E94B3
:1006E0000F0EF4CFDF91CF910895CF93DF93EC01FC
:1006F0008A819B81039719F40E940F0EF9CF81E044
:10070000DF91CF9108958F929F92AF92BF92CF9237
:10071000DF92EF92FF92CF93DF93EC016B010E9487
:100720005A0E4B015C01E12CF12C0E945A0E681903
:1007300079098A099B096C157D058E059F0560F472
:10074000E881F9810280F381E02DCE0109958111C4
:1007500005C00E940F0EE9CF80E001C081E0DF916B
:10076000CF91FF90EF90DF90CF90BF90AF909F9090
:100770008F9008958F929F92AF92BF92CF92DF9207
:10078000EF92FF92CF93DF93EC016B010E945A0E20
:100790004B015C01E12CF12C0E945A0E6819790979
:1007A0008A099B096C157D058E059F0538F48A81A1
:1007B0009B81039729F40E940F0EEECF80E001C0C9
:1007C00081E0DF91CF91FF90EF90DF90CF90BF90CD
:1007D000AF909F908F900895CF92DF92EF92FF920B
:1007E0000F931F93CF93DF93EC018E899F89892B01
:1007F00089F10E945A0E6B017C01E881F98104881D
:10080000F589E02DCE010995882321F10E945A0E29
:100810006C197D098E099F090E891F8920E030E03F
:10082000061717072807390798F02AE030E040E05C
:1008300050E061E070E080E090E00E94A0129B0137
:10084000AC01A4E6B0E00E9457140E94890ED5CFF7
:1008500080E001C081E0DF91CF911F910F91FF9067
:10086000EF90DF90CF900895FC0185E591E09183B2
:100870008083138212828FEF84838287838714861A
:100880001586108A1786128A118A148A138A178A83
:10089000168A089508950895FC0175836483089568
:1008A000FC01778366830895FC0173836283089556
:1008B000FC0185E891E09183808373836283558393
:1008C00044833783268308956EBD00000DB407FE70
:1008D000FDCF8EB508958CB580688CBD08958CB51C
:1008E0008F778CBD08950C945B0C2CB5982F93706A
:1008F0002C7F922B9CBD9DB582FB882780F99E7F23
:10090000982B9DBD0895CF93FC0126813781211539
:10091000310579F02130310541F02230310539F0CF
:100920002330310531F49CE005C094E003C098E029
:1009300001C090E08CB5837F892B8CBD848195812B
:10094000019719F48CB5806202C08CB58F7D8CBD87
:100950008281938101978430910528F4FC01EB5644
:10096000FE4FC08101C0C1E08C2F0E9475040E941F
:10097000250C8C2FCF910C947504CF93DF93EC0151
:100980000E9458048DE991E099838883DF91CF918B
:10099000089520E030E040E050E060E070E08FE259
:1009A00094E00C94BD04CF93DF93EC010E943A02D3
:1009B000FE01E05CFF4F1082118212821382349696
:1009C0001082319688EC90E091838083329683E0A8
:1009D0008083C85BDF4F80E091E0FE019C011192B3
:1009E00021503040E1F7DF91CF9108950F931F938D
:1009F000CF93DF9300D0CDB7DEB78C014A830E943E
:100A0000B90240E060E8C8010E94C30281E2898324
:100A10002A8141E0BE016F5F7F4FC8010E945D02E5
:100A2000C8010E9449020F900F90DF91CF911F9152
:100A30000F9108952F923F924F925F926F927F9203
:100A40008F929F92AF92BF92CF92DF92EF92FF92DE
:100A50000F931F93CF93DF93CDB7DEB728970FB6D1
:100A6000F894DEBF0FBECDBF5C011901280147011C
:100A700036014F8358876D837E830E943F024F81EA
:100A800058856D817E81882349F1CE0101966C01E4
:100A9000FE0132967F018E010D5F1F4F9E012C5F7C
:100AA0003F4FC5010E94F502182F8823B9F08981B4
:100AB00087FD14C09B81F5018281981305C04C818C
:100AC0006A81C5010E94F6048A819C81A90EB11C2D
:100AD000F501E85BFF4F2081821302C010E01AC0CD
:100AE0002114310411F0F10190834114510419F0E3
:100AF0009B81F20190838114910411F0F4018083B1
:100B00006114710419F09981F3019083F501E85B98
:100B1000FF4F8083812F28960FB6F894DEBF0FBE5B
:100B2000CDBFDF91CF911F910F91FF90EF90DF909C
:100B3000CF90BF90AF909F908F907F906F905F907D
:100B40004F903F902F900895CF93DF93EC01888DC5
:100B5000998DDC01ED91FC910680F781E02D0995DE
:100B600061E08A8D0E94150F61E08A8D0E944E0F10
:100B700064E670E080E090E00E94890E81E0DF9101
:100B8000CF910895EF92FF920F931F93CF93DF932E
:100B90001F92CDB7DEB77C018A0169830E943404BD
:100BA00081EB91E0F70191838083118F008F698140
:100BB000628F0F90DF91CF911F910F91FF90EF9077
:100BC00008950F931F93CF93DF93EC01062F1FB768
:100BD000F89460E08A8D0E944E0F888D998DDC011B
:100BE000ED91FC91602F6F770190F081E02D0995D8
:100BF000888D998DDC01ED91FC910190F081E02DC3
:100C000060E00995082F61E08A8D0E944E0F1FBF9A
:100C1000802FDF91CF911F910F910895EF92FF9256
:100C20000F931F93CF93DF931F92CDB7DEB77C0155
:100C3000162F0FB7F89460E0DC015A968C91498327
:100C40000E944E0FF701808D918DDC01ED91FC919A
:100C5000612F60680190F081E02D0995182FF70150
:100C6000808D918DDC01ED91FC910190F081E02D62
:100C70004981642F099561E0F701828D0E944E0F32
:100C80000FBF812F0F90DF91CF911F910F91FF9098
:100C9000EF900895AF92BF92DF92EF92FF920F9381
:100CA0001F93CF93DF9300D0CDB7DEB78C01D62E44
:100CB000F22EEFB6F89460E0DC015A968C914983ED
:100CC0005A830E944E0FF801808D918DDC01ED91C9
:100CD000FC916D2D60680190F081E02D0995D82E72
:100CE0004981A42E5A81B52EF40EFA1471F0F80140
:100CF000808D918DD5016D915D01DC01ED91FC91AF
:100D00000190F081E02D0995F0CF61E0F801828D2E
:100D10000E944E0FEFBE8D2D0F900F90DF91CF915F
:100D20001F910F91FF90EF90DF90BF90AF900895CB
:100D3000CF93DF93EC018A8D0E94840F21E0892BF1
:100D400009F420E08D8D8227DF91CF910895FC0179
:100D5000838D0C944E0FFC01268D6227848D0C949C
:100D60004E0FCF93DF93EC018A819B81029761F054
:100D700060E0CE010E94AB0660E0CE010E94A706B3
:100D800082E090E09B838A83DF91CF910895862F44
:100D900086958695887098E0980F891749F0E82F16
:100DA000F0E0E352FE4F2081621719F08F5FF5CF1C
:100DB00080E008951F93CF93DF93EC010E94980683
:100DC000882319F09AA19F5F9AA399A1891771F0BE
:100DD0009BA1903518F42BE030E002C02DE130E00B
:100DE0009BA1290F311D2BA389A303C08BA18C5E6E
:100DF0008BA38BA1803A08F46EC08DA19EA196951D
:100E000087959EA38DA38AA1853028F08DA19EA1F0
:100E100098609EA38DA38BA1805A8BA31AA28CA14C
:100E2000882309F446C08FA18F5F8FA38C3008F40C
:100E300052C06DA17EA16F73CE010E94C706182F0C
:100E40006DA17EA146E0769567954A95E1F7CE01C2
:100E50000E94C70690E1199F90011124822BBE01C8
:100E600064597F4FFB019081DE01A559BF4F992343
:100E7000B1F0FB01908121E0290F2083AE01490FE1
:100E8000511DFA0180A7FB0190818C91981778F091
:100E90001CA281E08F8FCE010E94B10608C08C9306
:100EA0009C91973090F09C91943478F4E2CF1FA2FB
:100EB00012C08DA19EA188339B4069F481E08CA370
:100EC0001FA2C459DF4F188206C01CA28F859889C3
:100ED0000196988B8F87DF91CF911F910895CF92C4
:100EE000DF92EF92FF920F931F93CF93DF93EC016A
:100EF0008C0101591F4FF801808191E0980F908378
:100F0000811136C06E01FDE6CF0ED11CF601808145
:100F1000EF56FF4F9081891748F0CE010E94B1062D
:100F20008B899C8901969C8B8B8B22C0FE01E80FDC
:100F3000F11DE059FF4F608170E07E01FEE6EF0E8B
:100F4000F11CF701808191E0980F908302C07595A4
:100F500067958A95E2F76170CE010E94A706F701B6
:100F60008081863028F01082F60180818F5F808337
:100F7000F8018081883008F01082DF91CF911F91B5
:100F80000F91FF90EF90DF90CF900895FC012281A8
:100F900033812430310511F40C94DA06FC012281EE
:100FA00033812330310511F40C946F0708951F929B
:100FB0000F920FB60F9211242F933F934F935F938D
:100FC0006F937F938F939F93AF93BF93EF93FF9311
:100FD00080913704909138040E94C607FF91EF91E9
:100FE000BF91AF919F918F917F916F915F914F9141
:100FF0003F912F910F900FBE0F901F9018958CE38B
:101000000895CF93DF93EC018A819B81019749F08A
:1010100040E061E0CE010E940E0681E090E09B83FB
:101020008A8381E0DF91CF910895CF92DF92EF9292
:10103000FF920F931F93CF93DF93EC017B018A0103
:10104000E881F9810280F381E02D0995D82E88236B
:10105000E1F0E114F104B1F00115110599F0CFB6FA
:10106000F89488A1F8019081891710F488A18083F1
:10107000F801408150E0BE016F5D7F4FC7010E94C3
:10108000E214CFBEC35ADF4F18828D2DDF91CF916E
:101090001F910F91FF90EF90DF90CF9008951F93D5
:1010A000CF93DF93EC01142FA9010E94C20581EFB9
:1010B00091E0998388831B8F84E08D8F8FEF8C8FD5
:1010C000DF91CF911F910895EF92FF920F931F939D
:1010D000CF93DF93EC01FFB6F89460E08A8D0E9415
:1010E0004E0F888D998DDC01ED91FC910190F0817E
:1010F000E02D60E00995888D998DDC01ED91FC91E2
:101100000190F081E02D60E00995082F8CEF800FB1
:101110008D3300F5888D998DDC01ED91FC91019066
:10112000F081E02D60E009958E838D8181111EC0D4
:101130009E818C819817D1F08E818F3F59F416C013
:1011400089899A8901969A8B898B81E0FE01E35AFD
:10115000FF4F808361E08A8D0E944E0FFFBEDF91BA
:10116000CF911F910F91FF90EF900895888D998DE9
:10117000DC01ED91FC910190F081E02D60E009959A
:101180008F83888D998DDC01ED91FC910190F08128
:10119000E02D60E009958887888D998DDC01ED91BF
:1011A000FC910190F081E02D60E00995898718A2FB
:1011B00010E00450110988A190E0801791070CF00D
:1011C000BFCFE8A0888D998DDC01ED91FC91019055
:1011D000F081E02D60E00995FE01EE0DF11D81A387
:1011E00088A18F5F88A3E7CFCF92DF92EF92FF9223
:1011F000CF93DF93EC01CB01BA0120E034E244E766
:1012000059E40E94B31320E034E244E752E40E9420
:10121000CE120E9436136B017C01A7016627772747
:1012200067E0CE010E940E0677276F2D5E2D4D2DB3
:1012300068E0CE010E940E064C2D69E0CE010E94AE
:101240000E0681E0DF91CF91FF90EF90DF90CF907D
:1012500008951F93CF93DF93EC01162F61E00E9456
:10126000E105482F437E1C71412B61E0CE010E94B5
:101270000E0667E2CE010E94E10587FFFACFDF91FB
:10128000CF911F910895CF93DF93EC018A819B81C9
:101290000297A9F08F8D823154F045E56AE5CE01C1
:1012A0000E940E0640E76CE5CE010E940E066D8D91
:1012B000CE010E94290982E090E09B838A83DF911E
:1012C000CF9108951F93CF93DF93EC0168E20E94C2
:1012D000E105182F2A813B812330310511F483FD6C
:1012E00020C02A813B812430310529F512FF23C01B
:1012F00064E2CE010E94E105869581958E870E9469
:101300005A0EFE01E25AFF4F6083718382839383FA
:10131000CE010E944309CE01DF91CF911F910C9421
:101320006408CE010E9443092B893C892F5F3F4FFF
:101330003C8B2B8BD6CFDF91CF911F91089580915D
:101340003A0490913B04009711F00C9462090895BF
:1013500080913C0490913D04009711F00C94620937
:10136000089580913E0490913F04009711F00C94F1
:1013700062090895CF93DF93EC018A819B810497E2
:10138000D1F08F8D823154F045E56AE5CE010E949F
:101390000E0640E76CE5CE010E940E0640E465E2D1
:1013A000CE010E940E0660E1CE010E94290984E070
:1013B00090E09B838A83DF91CF910895CF93DF9351
:1013C000EC018A819B81039739F0CE010E94BA0912
:1013D000C35ADF4F888101C080E0DF91CF9108952B
:1013E000CF93DF93EC018A819B810397D1F08F8D9E
:1013F000823154F04DE56AE5CE010E940E064CE7BD
:101400006CE5CE010E940E0640E065E2CE010E942E
:101410000E066CE0CE010E94290983E090E09B83D8
:101420008A83DF91CF910895BF92CF92DF92EF929E
:10143000FF920F931F93CF93DF93EC01C62EB72E2D
:10144000D42E8CE3841710F4F12C71C0E881F9815B
:101450000484F585E02DCE010995CE010E94430953
:10146000E881F9810288F389E02DCE010995F82EF3
:10147000882351F3EFB6F89460E08A8D0E944E0FF6
:10148000888D998DDC01ED91FC910190F081E02D2A
:1014900060E80995888D998DDC01ED91FC9164E0FF
:1014A0006D0D0190F081E02D0995888D998DDC01FD
:1014B000ED91FC910190F081E02D6A850995888D70
:1014C000998DDC01ED91FC910190F081E02D6B850F
:1014D0000995888D998DDC01ED91FC910190F08149
:1014E000E02D6C850995888D998DDC01ED91FC913D
:1014F0000190F081E02D6D8509950C2D1B2DDC0CE4
:10150000D01669F0888D998DF80161918F01DC0109
:10151000ED91FC910190F081E02D0995F1CF61E012
:101520008A8D0E944E0FEFBECE010E94F0098F2DD2
:10153000DF91CF911F910F91FF90EF90DF90CF90AF
:10154000BF900895FC01678F442399F06E3F14F417
:101550008EEF878F478D4E3024F44E5E4F7140647E
:1015600015C042311CF0455F4F7101C0425F4066BB
:101570000DC06E3E14F48EEE878F878D8E3014F082
:101580008DE0878F478D4E5E4F71406861E1CF01DE
:101590000C940E060F931F93CF93DF93EC018B01F6
:1015A00025E0AB0162E00E944A06A8014B5F5F4F55
:1015B00022E069E1CE010E944A06F801478167E313
:1015C000CE01DF91CF911F910F910C940E060F93D6
:1015D0001F93CF93DF93CDB7DEB728970FB6F8945C
:1015E000DEBF0FBECDBF8C016C317105ACF423E0C2
:1015F000660F771F2A95E1F768597F4F48E050E062
:10160000CE0101960E94D914BE016F5F7F4FC801C1
:101610000E94CA0A81E001C080E028960FB6F894C3
:10162000DEBF0FBECDBFDF91CF911F910F91089507
:101630001F93CF93DF93EC01162F472F6CE20E948C
:101640000E06412F6DE2CE01DF91CF911F910C94D8
:101650000E06CF92DF92FF920F931F93CF93DF93EB
:101660001F92CDB7DEB76C018B01F42E6EE20E94A3
:10167000E105382F0115110571F08FEF8F0D8430C2
:1016800050F42F2DA8016FE2C60139830E944A064B
:101690003981306801C03F77432F477C2F2D30E0E0
:1016A0002150310953E0220F331F5A95E1F7422BA5
:1016B0006EE2C6010F90DF91CF911F910F91FF90C5
:1016C000DF90CF900C940E06CF93DF93EC01AB012B
:1016D0006115710559F020E16EE30E944A066DE341
:1016E000CE010E94E105482F416005C06DE30E94D4
:1016F000E105482F4E7F6DE3CE01DF91CF910C9431
:101700000E06DF92EF92FF920F931F93CF93DF931A
:1017100000D0CDB7DEB77C010E94A405D82E811180
:1017200002C0D12C87C0F701838D823021F0833035
:10173000C1F711E001C010E060E1C7010E94E105BE
:10174000F701868F81508E3F60F760E0F701838D4F
:101750000E94150FF701848D8F3F49F48091390461
:101760008430F8F691E0980F90933904848FF70154
:10177000948DE92FF0E0EE0FFF1FE65CFB4FF18246
:10178000E082911105C043E050E06FE979E00EC0BE
:10179000913029F443E050E068EA79E007C09230E4
:1017A00009F0BFCF43E050E061EB79E0812F0E9468
:1017B000A10DC7010E9443094FE86CE3C7010E94D5
:1017C0000E0640E36FE6C7010E940E0645E56AE596
:1017D000C7010E940E0640E76CE5C7010E940E0695
:1017E0008DE2898384ED8A8342E0BE016F5F7F4F83
:1017F000C7010E94290B62E170E0C7010E94E70A5D
:1018000064E070E0C7010E94180B0DEC1CEC2CE4A6
:101810003DE340E050E069ED73E4C7010E94F40845
:1018200060E070E0C7010E94640B40E06DE0C7011A
:101830000E94A20A8D2D0F900F90DF91CF911F91E2
:101840000F91FF90EF90DF900895CF93CFB7F8946A
:1018500080914304811127C0E2E7F1E08491EEE535
:10186000F1E09491E82FF0E0EE0FFF1FE057FE4FFC
:10187000A591B4918C91892321F461E08AE00E94C2
:101880004E0F61E08AE00E94150F8CB580618CBD1F
:101890008CB580648CBD61E08DE00E94150F61E025
:1018A0008BE00E94150F809143048F5F8093430467
:1018B000CFBFCF9108959FB7F894809143048823B8
:1018C00019F081508093430480914304811105C035
:1018D0008CB58F7B8CBD109242049FBF08958EBD46
:1018E00000000DB407FEFDCF8EB50895FC0180E524
:1018F000858316826083528341830895FC018CB5F1
:1019000083838DB584833581268180914204882329
:1019100099F09FB7F89480914204813059F48DB3C7
:10192000809340044DB380914104809584238DBB06
:101930009FBF02C0909340043CBD2DBD60E08081FC
:101940000C944E0FCF93DF93EC0161E088810E94ED
:101950004E0F80914204882361F09FB7F894209144
:10196000420480914004213019F48DBB9FBF01C017
:101970008FBF8B818CBD8C818DBDDF91CF91089500
:101980000F931F93CF93DF938C010E947E0C8FE9FE
:101990000E946F0C80E00E946F0CC82FD0E0DC2FFB
:1019A000CC2780E00E946F0CC82BC8010E94A20CBB
:1019B000CE01DF91CF911F910F9108951F93CF9387
:1019C000DF93EC010E947E0C85E00E946F0C80E0AA
:1019D0000E946F0C182FCE010E94A20C812FDF9164
:1019E000CF911F9108950E94DE0C817008951F937E
:1019F000CF93DF93EC01162F442339F040E066E0EB
:101A00000E94F70CCE010E94A20CCE010E94F30CA2
:101A10008111FBCFCE010E947E0C812FDF91CF91EF
:101A20001F910C946F0CEF92FF920F931F93CF9323
:101A3000DF9300D0CDB7DEB77C01142F062F41E035
:101A400062E02A8359830E94F70C802F0E946F0C5A
:101A50005981852F0E946F0C812F0E946F0C2A8163
:101A6000822F0E946F0CC7010F900F90DF91CF91D2
:101A70001F910F91FF90EF900C94A20CEF92FF92A8
:101A80000F931F93CF93DF931F92CDB7DEB77C01E7
:101A9000142F062F41E062E559830E94F70C802F36
:101AA0000E946F0C5981852F0E946F0C812F0E941C
:101AB0006F0CC7010F90DF91CF911F910F91FF9095
:101AC000EF900C94A20CCF93DF93EC0140E06BEA13
:101AD0000E94F70CCE01DF91CF910C94A20CCF9312
:101AE000DF93EC018CB58B838DB58C8361E08881AD
:101AF0000E94150F80E58D831E82CE010E94A20CEC
:101B0000CE010E94630D89819A81892B51F0CE010B
:101B10000E94C00C29813A818217930711F080E05E
:101B20000CC041E061E0CE010E94F70C80E00E9411
:101B30006F0CCE010E94A20C81E0DF91CF9108953D
:101B400008958230E8F4E82FF0E0EE0FFF1FEC5F1D
:101B5000FE4F71836083813041F0809169008C7FFA
:101B6000842B80936900E89A089580916900440F5E
:101B7000551F440F551F837F842B80936900E99A7A
:101B800008951F920F920FB60F9211242F933F9337
:101B90004F935F936F937F938F939F93AF93BF9375
:101BA000EF93FF93E0910401F09105010995FF91F6
:101BB000EF91BF91AF919F918F917F916F915F91C5
:101BC0004F913F912F910F900FBE0F901F9018953E
:101BD0001F920F920FB60F9211242F933F934F93A2
:101BE0005F936F937F938F939F93AF93BF93EF9385
:101BF000FF93E0910601F09107010995FF91EF91A4
:101C0000BF91AF919F918F917F916F915F914F9114
:101C10003F912F910F900FBE0F901F901895089530
:101C20001F920F920FB60F9211242F933F938F9311
:101C30009F93AF93BF938091450490914604A091E8
:101C40004704B09148043091440423E0230F2D371A
:101C500020F40196A11DB11D05C026E8230F0296B0
:101C6000A11DB11D20934404809345049093460424
:101C7000A0934704B09348048091490490914A048A
:101C8000A0914B04B0914C040196A11DB11D80930D
:101C9000490490934A04A0934B04B0934C04BF9121
:101CA000AF919F918F913F912F910F900FBE0F9009
:101CB0001F9018952FB7F8946091450470914604D1
:101CC00080914704909148042FBF08953FB7F8943E
:101CD0008091490490914A04A0914B04B0914C0426
:101CE00026B5A89B05C02F3F19F00196A11DB11D77
:101CF0003FBF6627782F892F9A2F620F711D811D94
:101D0000911D42E0660F771F881F991F4A95D1F7F2
:101D10000895CF92DF92EF92FF92CF93DF936B0102
:101D20007C010E94660EEB01C114D104E104F104B0
:101D300089F00E940F0E0E94660E6C1B7D0B683EA0
:101D4000734090F381E0C81AD108E108F108C85146
:101D5000DC4FEACFDF91CF91FF90EF90DF90CF90F3
:101D60000895789484B5826084BD84B5816084BD13
:101D700085B5826085BD85B5816085BDEEE6F0E004
:101D8000808181608083E1E8F0E010828081826060
:101D90008083808181608083E0E8F0E080818160E1
:101DA0008083E1EBF0E0808184608083E0EBF0E011
:101DB000808181608083EAE7F0E0808184608083B5
:101DC000808182608083808181608083808180685F
:101DD00080831092C1000895833081F028F481300F
:101DE00099F08230A1F008958730A9F08830B9F0D9
:101DF0008430D1F4809180008F7D03C08091800079
:101E00008F7780938000089584B58F7702C084B562
:101E10008F7D84BD08958091B0008F7703C080913D
:101E2000B0008F7D8093B0000895CF93DF9390E052
:101E3000FC01EC5AFE4F2491FC01E859FE4F8491BD
:101E4000882349F190E0880F991FFC01E057FE4F6D
:101E5000A591B4918A579E4FFC01C591D4919FB72B
:101E6000611108C0F8948C91209582238C9388810D
:101E700082230AC0623051F4F8948C91322F30954D
:101E800083238C938881822B888304C0F8948C915F
:101E9000822B8C939FBFDF91CF9108950F931F9357
:101EA000CF93DF931F92CDB7DEB7282F30E0F90133
:101EB000E05CFE4F8491F901EC5AFE4F1491F90158
:101EC000E859FE4F04910023C9F0882321F069836B
:101ED0000E94EC0E6981E02FF0E0EE0FFF1FEA5741
:101EE000FE4FA591B4919FB7F8948C91611103C0F6
:101EF0001095812301C0812B8C939FBF0F90DF91A0
:101F0000CF911F910F910895CF93DF93282F30E049
:101F1000F901E05CFE4F8491F901EC5AFE4FD49137
:101F2000F901E859FE4FC491CC2391F081110E9430
:101F3000EC0EEC2FF0E0EE0FFF1FE458FE4FA591E2
:101F4000B4912C912D2381E090E021F480E002C037
:101F500080E090E0DF91CF910895FC01818D228D8A
:101F600090E0805C9F4F821B91098F7399270895A1
:101F7000FC01918D828D981731F0828DE80FF11D53
:101F8000858D90E008958FEF9FEF0895FC01918D6E
:101F9000828D981761F0828DDF01A80FB11D5D96CB
:101FA0008C91928D9F5F9F73928F90E008958FEF39
:101FB0009FEF08958AE491E1892B49F080E090E059
:101FC000892B29F00E944A1181110C940000089578
:101FD000FC01848DDF01A80FB11DA35ABF4F2C91C6
:101FE000848D90E001968F739927848FA689B78995
:101FF0002C93A089B1898C9180648C93938D848D6E
:10200000981306C00288F389E02D80818F7D80833C
:102010000895CF93DF93EC01888D8823C9F0EA8976
:10202000FB89808185FD05C0A889B9898C9186FDD1
:102030000FC00FB607FCF5CF808185FFF2CFA889CE
:10204000B9898C9185FFEDCFCE010E94E80FE7CFD3
:10205000DF91CF910895CF92DF92FF920F931F935C
:10206000CF93DF931F92CDB7DEB76C0181E0D6012D
:1020700058968C9358975B969C915B975C968C9145
:102080005C97981307C05096ED91FC915197808111
:1020900085FD2EC0F601038D10E00F5F1F4F0F73FB
:1020A0001127F02EF601848DF81211C00FB607FC2F
:1020B000F9CFD6015096ED91FC915197808185FF23
:1020C000F1CFC60169830E94E80F6981EBCF838D50
:1020D000E80FF11DE35AFF4F6083D6015B960C9326
:1020E0005B975296ED91FC915397808180620CC072
:1020F000D6015696ED91FC91579760835096ED91DD
:10210000FC91519780818064808381E090E00F9002
:10211000DF91CF911F910F91FF90DF90CF900895A5
:10212000BF92CF92DF92EF92FF92CF93DF93EC01B9
:102130006A017B01B22EE889F98982E0808341152A
:1021400081EE580761057105A1F060E079E08DE34B
:1021500090E0A70196010E9416142150310941090F
:1021600051095695479537952795211580E13807F0
:1021700098F0E889F989108260E874E88EE190E0CF
:10218000A70196010E9416142150310941095109F5
:102190005695479537952795EC85FD853083EE85D7
:1021A000FF852083188EEC89FD89B082EA89FB893E
:1021B000808180618083EA89FB8980818860808357
:1021C000EA89FB89808180688083EA89FB89808134
:1021D0008F7D8083DF91CF91FF90EF90DF90CF9044
:1021E000BF9008951F920F920FB60F9211242F9354
:1021F0008F939F93EF93FF93E0915D04F0915E04C2
:102200008081E0916304F091640482FD12C09081AA
:10221000809166048F5F8F7320916704821751F05D
:10222000E0916604F0E0E35BFB4F958F80936604DA
:1022300001C08081FF91EF919F918F912F910F901D
:102240000FBE0F901F9018951F920F920FB60F920E
:1022500011242F933F934F935F936F937F938F93AB
:102260009F93AF93BF93EF93FF938DE494E00E940D
:10227000E80FFF91EF91BF91AF919F918F917F9167
:102280006F915F914F913F912F910F900FBE0F90E3
:102290001F9018958DE494E00E94AD0F21E0892BEA
:1022A00009F420E0822F08951092500410924F04F8
:1022B00088EE93E0A0E0B0E0809351049093520444
:1022C000A0935304B093540481E292E090934E049F
:1022D00080934D0485EC90E090935A0480935904C8
:1022E00084EC90E090935C0480935B0480EC90E03D
:1022F00090935E0480935D0481EC90E09093600481
:1023000080935F0482EC90E0909362048093610478
:1023100086EC90E0909364048093630410926604CA
:102320001092670410926804109269040895CF9285
:10233000DF92EF92FF920F931F93CF93DF937C0175
:102340006A01EB0100E010E00C151D0571F06991C8
:10235000D701ED91FC910190F081E02DC701099525
:10236000892B19F00F5F1F4FEFCFC801DF91CF917D
:102370001F910F91FF90EF90DF90CF90089561151E
:10238000710581F0DB010D900020E9F7AD014150AE
:102390005109461B570BDC01ED91FC910280F38142
:1023A000E02D099480E090E008950C94BF116DE257
:1023B00072E00C94BF110F931F93CF93DF93EC0146
:1023C0000E94BF118C01CE010E94D711800F911F76
:1023D000DF91CF911F910F9108958F929F92AF92AD
:1023E000BF92CF92DF92EF92FF920F931F93CF9302
:1023F000DF93CDB7DEB7A1970FB6F894DEBF0FBE5F
:10240000CDBF7C01C42EE52FCB01D22E19A221E035
:102410002D1510F02AE0D22E8E010F5D1F4F8D2C4E
:10242000912CA12CB12C6C2D7E2FA50194010E9422
:1024300016148C2DD29E80191124015011098A3056
:1024400014F4805D01C0895CF80180832115310599
:102450004105510521F0C22EE32FCA01E4CFB80196
:10246000C7010E94BF11A1960FB6F894DEBF0FBE40
:10247000CDBFDF91CF911F910F91FF90EF90DF9033
:10248000CF90BF90AF909F908F9008952115310508
:1024900041F4DC01ED91FC910190F081E02D642F7D
:1024A00009940C94ED110F931F93CF93DF93EC01DC
:1024B0009A01462F50E060E070E00E9446128C01C5
:1024C000CE010E94D711800F911FDF91CF911F91F4
:1024D0000F9108950F931F93CF93DF93EC010E9408
:1024E00046128C01CE010E94D711800F911FDF91FF
:1024F000CF911F910F910895CF93DF9300D000D01B
:10250000CDB7DEB79B01AC01611571058105910561
:1025100069F069833A834B835C830E94C6142981E6
:102520003A814B815C810E94381403C060E070E006
:10253000CB010F900F900F900F90DF91CF910895E6
:10254000CF92DF92EF92FF926B017C0162177307CB
:102550008407950764F4CA01B9016C197D098E09D5
:102560009F090E947C126C0D7D1D8E1D9F1DFF908A
:10257000EF90DF90CF9008950E94D41408950E94A8
:10258000B10E0E94BE120E94FA00CAEDDFE00E9466
:102590002F012097E1F30E94DA0FF9CF0CD0A9C0E8
:1025A000A1D040F098D030F021F45F3F19F08AC0FC
:1025B0005111D3C08DC0AED098F39923C9F35523E0
:1025C000B1F3951B550BBB27AA2762177307840726
:1025D00038F09F5F5F4F220F331F441FAA1FA9F3DC
:1025E00033D00E2E3AF0E0E830D091505040E695CE
:1025F000001CCAF729D0FE2F27D0660F771F881F2F
:10260000BB1F261737074807AB07B0E809F0BB0B1D
:10261000802DBF01FF2793585F4F2AF09E3F510541
:1026200068F050C09AC05F3FECF3983EDCF38695AB
:1026300077956795B795F7959F5FC9F7880F911DB7
:102640009695879597F90895E1E0660F771F881FA3
:10265000BB1F621773078407BA0720F0621B730B56
:10266000840BBA0BEE1F88F7E09508955BD088F0D5
:102670009F5790F0B92F9927B751A0F0D1F0660F6E
:10268000771F881F991F1AF0BA95C9F712C0B13089
:1026900081F062D0B1E008955FC0672F782F88275E
:1026A000B85F39F0B93FCCF3869577956795B395C8
:1026B000D9F73EF490958095709561957F4F8F4F37
:1026C0009F4F089597F99F6780E870E060E0089554
:1026D0009FEF80EC089500240A941616170618063A
:1026E0000906089500240A94121613061406050616
:1026F0000895092E0394000C11F4882352F0BB0FA7
:1027000040F4BF2B11F460FF04C06F5F7F4F8F4F09
:102710009F4F089557FD9058440F551F59F05F3F44
:1027200071F04795880F97FB991F61F09F3F79F0F3
:1027300087950895121613061406551FF2CF469575
:10274000F1DF08C0161617061806991FF1CF8695F7
:102750007105610508940895E894BB2766277727DB
:10276000CB0197F908950BD0C4CFB5DF28F0BADFBD
:1027700018F0952309F0A6CFABCF1124EECFCADF16
:10278000A0F3959FD1F3950F50E0551F629FF00184
:10279000729FBB27F00DB11D639FAA27F00DB11DDD
:1027A000AA1F649F6627B00DA11D661F829F222766
:1027B000B00DA11D621F739FB00DA11D621F839FED
:1027C000A00D611D221F749F3327A00D611D231FC3
:1027D000849F600D211D822F762F6A2F11249F5711
:1027E00050408AF0E1F088234AF0EE0FFF1FBB1F34
:1027F000661F771F881F91505040A9F79E3F5105D3
:1028000070F060CFAACF5F3FECF3983EDCF3869583
:1028100077956795B795F795E7959F5FC1F7FE2B7D
:10282000880F911D9695879597F90895A1E21A2E24
:10283000AA1BBB1BFD010DC0AA1FBB1FEE1FFF1F64
:10284000A217B307E407F50720F0A21BB30BE40BB4
:10285000F50B661F771F881F991F1A9469F76095FB
:102860007095809590959B01AC01BD01CF010895B5
:10287000052E97FB1EF400940E944F1457FD07D0BD
:102880000E94161407FC03D04EF40C944F1450957C
:102890004095309521953F4F4F4F5F4F089590954C
:1028A0008095709561957F4F8F4F9F4F08950E943F
:1028B0006814A59F900DB49F900DA49F800D911D4D
:1028C00011240895EE0FFF1F0590F491E02D099457
:1028D000A29FB001B39FC001A39F700D811D112461
:1028E000911DB29F700D811D1124911D08958F922D
:1028F0009F92AF92BF92CF92DF92EF92FF92CF93CF
:10290000DF93EC01688179818A819B816115710572
:102910008105910521F464E279ED8BE597E02DE1E5
:1029200033EF41E050E00E94381449015A019B0105
:10293000AC01A7EAB1E40E9457146B017C01ACEE34
:10294000B4EFA50194010E94EE14C60ED71EE81E36
:10295000F91EF7FE06C081E0C81AD108E10880E838
:10296000F80AC882D982EA82FB82C701B6019F7742
:10297000DF91CF91FF90EF90DF90CF90BF90AF901D
:102980009F908F9008950E947714089580E091E0C1
:102990000E94771408956093000170930101809361
:1029A000020190930301089581E090E0F8940C9463
:1029B000F314FB01DC0102C005900D924150504020
:1029C000D8F70895FB01DC0102C001900D9241503F
:1029D0005040D8F70895B7FF0C9457140E9457142D
:0A29E000821B930B0895F894FFCFBB
:1029EA0001000000A00DA00D56302E3200535049B0
:1029FA0020466C61736820496E6974204641494CCF
:102A0A002120286973206368697020707265736574
:102A1A006E743F2900696E6974206661696C656429
:102A2A0000446F6E650A66696C652073697A653D54
:102A3A0000000000003B03BC12BC12BC12BC1263B3
:102A4A00037503BA038303EC033D034203450348BA
:102A5A00034B034E033F03550358035B035E0361B5
:102A6A000300000000BC124A044B04BC12BC124C06
:102A7A000450045404050004040000000064046BBC
:102A8A00046F04830473044C0450045404000000CB
:102A9A0000A405BC12BC12BC12BC1263037503BAB3
:102AAA00038303EC033D034203450348034B034EF0
:102ABA00033F03550358035B035E0361030D0E13C3
:102ACA001516191A1C232526292A2C32340000002F
:102ADA0000810BDE091508140AFF0763037503BAA0
:102AEA00038303EC033D034203450348034B034EB0
:102AFA00033F03550358035B035E0301080000000C
:102B0A00002B109711AD0FC60FB80F09100D0A0050
:0E2B1A006E616E00696E66006F7666002E00BA
:00000001FF
